{
  "contractName": "certificateVerification",
  "abi": [
    {
      "inputs": [],
      "payable": false,
      "stateMutability": "nonpayable",
      "type": "constructor"
    },
    {
      "constant": false,
      "inputs": [
        {
          "name": "documentHash",
          "type": "bytes32"
        },
        {
          "name": "orgId",
          "type": "bytes32"
        }
      ],
      "name": "addCertificate",
      "outputs": [
        {
          "name": "",
          "type": "string"
        }
      ],
      "payable": false,
      "stateMutability": "nonpayable",
      "type": "function"
    },
    {
      "constant": true,
      "inputs": [
        {
          "name": "documentHash",
          "type": "bytes32"
        }
      ],
      "name": "verifyCertificates",
      "outputs": [
        {
          "name": "",
          "type": "bytes32"
        },
        {
          "name": "",
          "type": "bool"
        }
      ],
      "payable": false,
      "stateMutability": "view",
      "type": "function"
    },
    {
      "constant": false,
      "inputs": [
        {
          "name": "orgAddress",
          "type": "address"
        },
        {
          "name": "orgId",
          "type": "bytes32"
        }
      ],
      "name": "addOrganization",
      "outputs": [
        {
          "name": "",
          "type": "string"
        }
      ],
      "payable": false,
      "stateMutability": "nonpayable",
      "type": "function"
    },
    {
      "constant": false,
      "inputs": [
        {
          "name": "orgAddress",
          "type": "address"
        },
        {
          "name": "orgId",
          "type": "bytes32"
        }
      ],
      "name": "modifyOrganizationAddress",
      "outputs": [
        {
          "name": "",
          "type": "string"
        }
      ],
      "payable": false,
      "stateMutability": "nonpayable",
      "type": "function"
    }
  ],
  "bytecode": "0x608060405234801561001057600080fd5b5033600260006101000a81548173ffffffffffffffffffffffffffffffffffffffff021916908373ffffffffffffffffffffffffffffffffffffffff160217905550610c72806100616000396000f3fe608060405234801561001057600080fd5b506004361061004c5760003560e01c80630e88d96714610051578063208100d11461009e57806379dd18c414610165578063d1b77a3e14610216575b600080fd5b61007d6004803603602081101561006757600080fd5b81019080803590602001909291905050506102dd565b60405180838152602001821515151581526020019250505060405180910390f35b6100ea600480360360408110156100b457600080fd5b81019080803573ffffffffffffffffffffffffffffffffffffffff169060200190929190803590602001909291905050506103ef565b6040518080602001828103825283818151815260200191508051906020019080838360005b8381101561012a57808201518184015260208101905061010f565b50505050905090810190601f1680156101575780820380516001836020036101000a031916815260200191505b509250505060405180910390f35b61019b6004803603604081101561017b57600080fd5b810190808035906020019092919080359060200190929190505050610691565b6040518080602001828103825283818151815260200191508051906020019080838360005b838110156101db5780820151818401526020810190506101c0565b50505050905090810190601f1680156102085780820380516001836020036101000a031916815260200191505b509250505060405180910390f35b6102626004803603604081101561022c57600080fd5b81019080803573ffffffffffffffffffffffffffffffffffffffff169060200190929190803590602001909291905050506109a5565b6040518080602001828103825283818151815260200191508051906020019080838360005b838110156102a2578082015181840152602081019050610287565b50505050905090810190601f1680156102cf5780820380516001836020036101000a031916815260200191505b509250505060405180910390f35b60008060208060ff1614610359576040517f08c379a000000000000000000000000000000000000000000000000000000000815260040180806020018281038252600f8152602001807f4861736820697320696e76616c6964000000000000000000000000000000000081525060200191505060405180910390fd5b610361610bcc565b600080858152602001908152602001600020604051806040016040529081600082015481526020016001820160009054906101000a900460ff16151515158152505090508060200151156103c0578060000151600192509250506103ea565b60007f446f63756d656e74206973206e6f7420766572696669656400000000000000009092509250505b915091565b6060600260009054906101000a900473ffffffffffffffffffffffffffffffffffffffff1673ffffffffffffffffffffffffffffffffffffffff163373ffffffffffffffffffffffffffffffffffffffff16146104b4576040517f08c379a00000000000000000000000000000000000000000000000000000000081526004018080602001828103825260138152602001807f417574686f72697a6174696f6e204572726f720000000000000000000000000081525060200191505060405180910390fd5b6104bc610beb565b600160008481526020019081526020016000206040518060400160405290816000820160009054906101000a900473ffffffffffffffffffffffffffffffffffffffff1673ffffffffffffffffffffffffffffffffffffffff1673ffffffffffffffffffffffffffffffffffffffff1681526020016000820160149054906101000a900460ff161515151581525050905080602001516105c4576040517f08c379a000000000000000000000000000000000000000000000000000000000815260040180806020018281038252601e8152602001807f4f7267616e697a6174696f6e206973206e6f742072656769737465726564000081525060200191505060405180910390fd5b60405180604001604052808573ffffffffffffffffffffffffffffffffffffffff168152602001600115158152506001600085815260200190815260200160002060008201518160000160006101000a81548173ffffffffffffffffffffffffffffffffffffffff021916908373ffffffffffffffffffffffffffffffffffffffff16021790555060208201518160000160146101000a81548160ff021916908315150217905550905050604051806060016040528060298152602001610c1e6029913991505092915050565b606061069b610beb565b600160008481526020019081526020016000206040518060400160405290816000820160009054906101000a900473ffffffffffffffffffffffffffffffffffffffff1673ffffffffffffffffffffffffffffffffffffffff1673ffffffffffffffffffffffffffffffffffffffff1681526020016000820160149054906101000a900460ff1615151515815250509050610734610bcc565b600080868152602001908152602001600020604051806040016040529081600082015481526020016001820160009054906101000a900460ff1615151515815250509050816000015173ffffffffffffffffffffffffffffffffffffffff163373ffffffffffffffffffffffffffffffffffffffff161461081d576040517f08c379a00000000000000000000000000000000000000000000000000000000081526004018080602001828103825260138152602001807f417574686f72697a6174696f6e204572726f720000000000000000000000000081525060200191505060405180910390fd5b60208060ff1614610896576040517f08c379a000000000000000000000000000000000000000000000000000000000815260040180806020018281038252600f8152602001807f4861736820697320696e76616c6964000000000000000000000000000000000081525060200191505060405180910390fd5b80602001511561090e576040517f08c379a00000000000000000000000000000000000000000000000000000000081526004018080602001828103825260198152602001807f446f63756d656e7420616c72656164792076657269666965640000000000000081525060200191505060405180910390fd5b6040518060400160405280858152602001600115158152506000808781526020019081526020016000206000820151816000015560208201518160010160006101000a81548160ff0219169083151502179055509050506040518060400160405280601f81526020017f446f63756d656e7420697320616464656420696e20626c6f636b636861696e008152509250505092915050565b6060600260009054906101000a900473ffffffffffffffffffffffffffffffffffffffff1673ffffffffffffffffffffffffffffffffffffffff163373ffffffffffffffffffffffffffffffffffffffff1614610a6a576040517f08c379a00000000000000000000000000000000000000000000000000000000081526004018080602001828103825260138152602001807f417574686f72697a6174696f6e204572726f720000000000000000000000000081525060200191505060405180910390fd5b60208060ff1614610ae3576040517f08c379a000000000000000000000000000000000000000000000000000000000815260040180806020018281038252601a8152602001807f4f7267616e697a6174696f6e20496420697320696e76616c696400000000000081525060200191505060405180910390fd5b60405180604001604052808473ffffffffffffffffffffffffffffffffffffffff168152602001600115158152506001600084815260200190815260200160002060008201518160000160006101000a81548173ffffffffffffffffffffffffffffffffffffffff021916908373ffffffffffffffffffffffffffffffffffffffff16021790555060208201518160000160146101000a81548160ff0219169083151502179055509050506040518060400160405280601f81526020017f4f7267616e697a6174696f6e204164646564205375636365737366756c6c7900815250905092915050565b6040518060400160405280600080191681526020016000151581525090565b6040518060400160405280600073ffffffffffffffffffffffffffffffffffffffff168152602001600015158152509056fe4f7267616e697a6174696f6e20416464726573732055706461746564205375636365737366756c6c79a165627a7a72305820f7eb823ee24dee3ea73e99330e15bb25d553a06862d5e11fece4e5b21c91c4310029",
  "source": "pragma solidity ^0.5.0;\n\ncontract certificateVerification {\n\n    struct Organization{\n        address orgAddress;\n        bool exists;\n    }\n\n    struct Document{\n        bytes32 orgId;\n        bool verified;\n    }\n    \n    modifier owneronly{\n        require(msg.sender == owner, \"Authorization Error\");\n        _;\n    }\n\n    mapping(bytes32 => Document) private documents;\n    mapping(bytes32 => Organization) private organizations;\n    address private owner;\n\n    constructor() public {\n        owner = msg.sender;\n    }\n\n    function addCertificate(bytes32 documentHash,bytes32 orgId) public returns(string memory){\n        Organization memory orgData = organizations[orgId];\n        Document memory docData = documents[documentHash];\n        require(msg.sender == orgData.orgAddress,\"Authorization Error\");\n        require(documentHash.length == 32, \"Hash is invalid\");\n        require(!docData.verified,\"Document already verified\");\n        documents[documentHash] = Document(orgId,true);\n        return \"Document is added in blockchain\";\n    }\n    \n    function verifyCertificates(bytes32 documentHash) public view returns(bytes32,bool){\n        require(documentHash.length == 32, \"Hash is invalid\");\n        Document memory docData = documents[documentHash];\n        if(docData.verified)\n        { \n            return (docData.orgId,true);\n        }\n        else\n        {\n            return (\"Document is not verified\",false);\n        }\n    }\n\n    function addOrganization(address orgAddress, bytes32 orgId) public owneronly() returns(string memory){\n        require(orgId.length == 32, \"Organization Id is invalid\");\n        organizations[orgId] = Organization(orgAddress,true);\n        return \"Organization Added Successfully\";\n    }\n\n    function modifyOrganizationAddress(address orgAddress, bytes32 orgId) public owneronly() returns(string memory){\n        Organization memory orgData = organizations[orgId];\n        require(orgData.exists,\"Organization is not registered\");\n        organizations[orgId] = Organization(orgAddress, true);\n        return \"Organization Address Updated Successfully\";\n    }\n}",
  "sourcePath": "/home/sherlock/Documents/Smart Contract/E-document-Verification/contracts/CertificateVerification.sol",
  "compiler": {
    "name": "solc",
    "version": "0.5.8+commit.23d335f2.Emscripten.clang"
  },
  "schemaVersion": "3.0.11",
  "updatedAt": "2019-08-06T16:01:52.732Z",
  "devdoc": {
    "methods": {}
  },
  "userdoc": {
    "methods": {}
  }
}